{
  "_format": "hh-sol-artifact-1",
  "contractName": "SoulBadge",
  "sourceName": "contracts/SoulBadge.sol",
  "abi": [
    {
      "inputs": [],
      "stateMutability": "nonpayable",
      "type": "constructor"
    },
    {
      "inputs": [
        {
          "internalType": "address",
          "name": "sender",
          "type": "address"
        },
        {
          "internalType": "uint256",
          "name": "tokenId",
          "type": "uint256"
        },
        {
          "internalType": "address",
          "name": "owner",
          "type": "address"
        }
      ],
      "name": "ERC721IncorrectOwner",
      "type": "error"
    },
    {
      "inputs": [
        {
          "internalType": "address",
          "name": "operator",
          "type": "address"
        },
        {
          "internalType": "uint256",
          "name": "tokenId",
          "type": "uint256"
        }
      ],
      "name": "ERC721InsufficientApproval",
      "type": "error"
    },
    {
      "inputs": [
        {
          "internalType": "address",
          "name": "approver",
          "type": "address"
        }
      ],
      "name": "ERC721InvalidApprover",
      "type": "error"
    },
    {
      "inputs": [
        {
          "internalType": "address",
          "name": "operator",
          "type": "address"
        }
      ],
      "name": "ERC721InvalidOperator",
      "type": "error"
    },
    {
      "inputs": [
        {
          "internalType": "address",
          "name": "owner",
          "type": "address"
        }
      ],
      "name": "ERC721InvalidOwner",
      "type": "error"
    },
    {
      "inputs": [
        {
          "internalType": "address",
          "name": "receiver",
          "type": "address"
        }
      ],
      "name": "ERC721InvalidReceiver",
      "type": "error"
    },
    {
      "inputs": [
        {
          "internalType": "address",
          "name": "sender",
          "type": "address"
        }
      ],
      "name": "ERC721InvalidSender",
      "type": "error"
    },
    {
      "inputs": [
        {
          "internalType": "uint256",
          "name": "tokenId",
          "type": "uint256"
        }
      ],
      "name": "ERC721NonexistentToken",
      "type": "error"
    },
    {
      "inputs": [
        {
          "internalType": "string",
          "name": "msg",
          "type": "string"
        }
      ],
      "name": "NonTransferError",
      "type": "error"
    },
    {
      "inputs": [
        {
          "internalType": "address",
          "name": "owner",
          "type": "address"
        }
      ],
      "name": "OwnableInvalidOwner",
      "type": "error"
    },
    {
      "inputs": [
        {
          "internalType": "address",
          "name": "account",
          "type": "address"
        }
      ],
      "name": "OwnableUnauthorizedAccount",
      "type": "error"
    },
    {
      "anonymous": false,
      "inputs": [
        {
          "indexed": true,
          "internalType": "address",
          "name": "owner",
          "type": "address"
        },
        {
          "indexed": true,
          "internalType": "address",
          "name": "approved",
          "type": "address"
        },
        {
          "indexed": true,
          "internalType": "uint256",
          "name": "tokenId",
          "type": "uint256"
        }
      ],
      "name": "Approval",
      "type": "event"
    },
    {
      "anonymous": false,
      "inputs": [
        {
          "indexed": true,
          "internalType": "address",
          "name": "owner",
          "type": "address"
        },
        {
          "indexed": true,
          "internalType": "address",
          "name": "operator",
          "type": "address"
        },
        {
          "indexed": false,
          "internalType": "bool",
          "name": "approved",
          "type": "bool"
        }
      ],
      "name": "ApprovalForAll",
      "type": "event"
    },
    {
      "anonymous": false,
      "inputs": [
        {
          "indexed": false,
          "internalType": "uint256",
          "name": "tokenId",
          "type": "uint256"
        },
        {
          "indexed": false,
          "internalType": "string",
          "name": "cid",
          "type": "string"
        }
      ],
      "name": "CidUpdated",
      "type": "event"
    },
    {
      "anonymous": false,
      "inputs": [
        {
          "indexed": true,
          "internalType": "address",
          "name": "previousOwner",
          "type": "address"
        },
        {
          "indexed": true,
          "internalType": "address",
          "name": "newOwner",
          "type": "address"
        }
      ],
      "name": "OwnershipTransferred",
      "type": "event"
    },
    {
      "anonymous": false,
      "inputs": [
        {
          "indexed": true,
          "internalType": "address",
          "name": "owner",
          "type": "address"
        },
        {
          "indexed": false,
          "internalType": "uint256",
          "name": "tokenId",
          "type": "uint256"
        },
        {
          "indexed": false,
          "internalType": "string",
          "name": "bazi",
          "type": "string"
        }
      ],
      "name": "SoulBadgeMint",
      "type": "event"
    },
    {
      "anonymous": false,
      "inputs": [
        {
          "indexed": true,
          "internalType": "address",
          "name": "from",
          "type": "address"
        },
        {
          "indexed": true,
          "internalType": "address",
          "name": "to",
          "type": "address"
        },
        {
          "indexed": true,
          "internalType": "uint256",
          "name": "tokenId",
          "type": "uint256"
        }
      ],
      "name": "Transfer",
      "type": "event"
    },
    {
      "inputs": [
        {
          "internalType": "address",
          "name": "to",
          "type": "address"
        },
        {
          "internalType": "uint256",
          "name": "tokenId",
          "type": "uint256"
        }
      ],
      "name": "approve",
      "outputs": [],
      "stateMutability": "nonpayable",
      "type": "function"
    },
    {
      "inputs": [
        {
          "internalType": "address",
          "name": "owner",
          "type": "address"
        }
      ],
      "name": "balanceOf",
      "outputs": [
        {
          "internalType": "uint256",
          "name": "",
          "type": "uint256"
        }
      ],
      "stateMutability": "view",
      "type": "function"
    },
    {
      "inputs": [
        {
          "internalType": "uint256",
          "name": "tokenId",
          "type": "uint256"
        }
      ],
      "name": "getApproved",
      "outputs": [
        {
          "internalType": "address",
          "name": "",
          "type": "address"
        }
      ],
      "stateMutability": "view",
      "type": "function"
    },
    {
      "inputs": [],
      "name": "getTokenIdCounter",
      "outputs": [
        {
          "internalType": "uint256",
          "name": "",
          "type": "uint256"
        }
      ],
      "stateMutability": "view",
      "type": "function"
    },
    {
      "inputs": [
        {
          "internalType": "address",
          "name": "owner",
          "type": "address"
        },
        {
          "internalType": "address",
          "name": "operator",
          "type": "address"
        }
      ],
      "name": "isApprovedForAll",
      "outputs": [
        {
          "internalType": "bool",
          "name": "",
          "type": "bool"
        }
      ],
      "stateMutability": "view",
      "type": "function"
    },
    {
      "inputs": [
        {
          "internalType": "string",
          "name": "_bazi",
          "type": "string"
        },
        {
          "internalType": "int32",
          "name": "_gender",
          "type": "int32"
        },
        {
          "internalType": "int32",
          "name": "_longitude",
          "type": "int32"
        },
        {
          "internalType": "int32",
          "name": "_latitude",
          "type": "int32"
        },
        {
          "internalType": "uint256",
          "name": "_birthDate",
          "type": "uint256"
        },
        {
          "internalType": "string",
          "name": "cid",
          "type": "string"
        }
      ],
      "name": "mintSoulBadge",
      "outputs": [],
      "stateMutability": "nonpayable",
      "type": "function"
    },
    {
      "inputs": [],
      "name": "name",
      "outputs": [
        {
          "internalType": "string",
          "name": "",
          "type": "string"
        }
      ],
      "stateMutability": "view",
      "type": "function"
    },
    {
      "inputs": [],
      "name": "owner",
      "outputs": [
        {
          "internalType": "address",
          "name": "",
          "type": "address"
        }
      ],
      "stateMutability": "view",
      "type": "function"
    },
    {
      "inputs": [
        {
          "internalType": "uint256",
          "name": "tokenId",
          "type": "uint256"
        }
      ],
      "name": "ownerOf",
      "outputs": [
        {
          "internalType": "address",
          "name": "",
          "type": "address"
        }
      ],
      "stateMutability": "view",
      "type": "function"
    },
    {
      "inputs": [],
      "name": "renounceOwnership",
      "outputs": [],
      "stateMutability": "nonpayable",
      "type": "function"
    },
    {
      "inputs": [
        {
          "internalType": "address",
          "name": "from",
          "type": "address"
        },
        {
          "internalType": "address",
          "name": "to",
          "type": "address"
        },
        {
          "internalType": "uint256",
          "name": "tokenId",
          "type": "uint256"
        }
      ],
      "name": "safeTransferFrom",
      "outputs": [],
      "stateMutability": "nonpayable",
      "type": "function"
    },
    {
      "inputs": [
        {
          "internalType": "address",
          "name": "from",
          "type": "address"
        },
        {
          "internalType": "address",
          "name": "to",
          "type": "address"
        },
        {
          "internalType": "uint256",
          "name": "tokenId",
          "type": "uint256"
        },
        {
          "internalType": "bytes",
          "name": "data",
          "type": "bytes"
        }
      ],
      "name": "safeTransferFrom",
      "outputs": [],
      "stateMutability": "nonpayable",
      "type": "function"
    },
    {
      "inputs": [
        {
          "internalType": "string",
          "name": "bazi",
          "type": "string"
        }
      ],
      "name": "sameBaziCnt",
      "outputs": [
        {
          "internalType": "uint256",
          "name": "",
          "type": "uint256"
        }
      ],
      "stateMutability": "view",
      "type": "function"
    },
    {
      "inputs": [
        {
          "internalType": "address",
          "name": "operator",
          "type": "address"
        },
        {
          "internalType": "bool",
          "name": "approved",
          "type": "bool"
        }
      ],
      "name": "setApprovalForAll",
      "outputs": [],
      "stateMutability": "nonpayable",
      "type": "function"
    },
    {
      "inputs": [
        {
          "internalType": "string",
          "name": "newBaseURI",
          "type": "string"
        }
      ],
      "name": "setBaseURI",
      "outputs": [],
      "stateMutability": "nonpayable",
      "type": "function"
    },
    {
      "inputs": [
        {
          "internalType": "uint256",
          "name": "",
          "type": "uint256"
        }
      ],
      "name": "soulData",
      "outputs": [
        {
          "internalType": "string",
          "name": "bazi",
          "type": "string"
        },
        {
          "internalType": "int32",
          "name": "gender",
          "type": "int32"
        },
        {
          "internalType": "int32",
          "name": "longitude",
          "type": "int32"
        },
        {
          "internalType": "int32",
          "name": "latitude",
          "type": "int32"
        },
        {
          "internalType": "uint256",
          "name": "birthDate",
          "type": "uint256"
        },
        {
          "internalType": "uint256",
          "name": "baziNum",
          "type": "uint256"
        },
        {
          "internalType": "string",
          "name": "cid",
          "type": "string"
        }
      ],
      "stateMutability": "view",
      "type": "function"
    },
    {
      "inputs": [
        {
          "internalType": "bytes4",
          "name": "interfaceId",
          "type": "bytes4"
        }
      ],
      "name": "supportsInterface",
      "outputs": [
        {
          "internalType": "bool",
          "name": "",
          "type": "bool"
        }
      ],
      "stateMutability": "view",
      "type": "function"
    },
    {
      "inputs": [],
      "name": "symbol",
      "outputs": [
        {
          "internalType": "string",
          "name": "",
          "type": "string"
        }
      ],
      "stateMutability": "view",
      "type": "function"
    },
    {
      "inputs": [
        {
          "internalType": "uint256",
          "name": "tokenId",
          "type": "uint256"
        }
      ],
      "name": "tokenURI",
      "outputs": [
        {
          "internalType": "string",
          "name": "",
          "type": "string"
        }
      ],
      "stateMutability": "view",
      "type": "function"
    },
    {
      "inputs": [
        {
          "internalType": "address",
          "name": "from",
          "type": "address"
        },
        {
          "internalType": "address",
          "name": "to",
          "type": "address"
        },
        {
          "internalType": "uint256",
          "name": "tokenId",
          "type": "uint256"
        }
      ],
      "name": "transferFrom",
      "outputs": [],
      "stateMutability": "nonpayable",
      "type": "function"
    },
    {
      "inputs": [
        {
          "internalType": "address",
          "name": "newOwner",
          "type": "address"
        }
      ],
      "name": "transferOwnership",
      "outputs": [],
      "stateMutability": "nonpayable",
      "type": "function"
    },
    {
      "inputs": [
        {
          "internalType": "uint256",
          "name": "tokenId",
          "type": "uint256"
        },
        {
          "internalType": "string",
          "name": "newCID",
          "type": "string"
        }
      ],
      "name": "updateCID",
      "outputs": [],
      "stateMutability": "nonpayable",
      "type": "function"
    }
  ],
  "bytecode": "0x6080604052600060075534801561001557600080fd5b50336040518060400160405280600881526020017f536f756c42615a690000000000000000000000000000000000000000000000008152506040518060400160405280600481526020017f53425a540000000000000000000000000000000000000000000000000000000081525081600090816100929190610442565b5080600190816100a29190610442565b505050600073ffffffffffffffffffffffffffffffffffffffff168173ffffffffffffffffffffffffffffffffffffffff16036101175760006040517f1e4fbdf700000000000000000000000000000000000000000000000000000000815260040161010e9190610555565b60405180910390fd5b6101268161012c60201b60201c565b50610570565b6000600660009054906101000a900473ffffffffffffffffffffffffffffffffffffffff16905081600660006101000a81548173ffffffffffffffffffffffffffffffffffffffff021916908373ffffffffffffffffffffffffffffffffffffffff1602179055508173ffffffffffffffffffffffffffffffffffffffff168173ffffffffffffffffffffffffffffffffffffffff167f8be0079c531659141344cd1fd0a4f28419497f9722a3daafe3b4186f6b6457e060405160405180910390a35050565b600081519050919050565b7f4e487b7100000000000000000000000000000000000000000000000000000000600052604160045260246000fd5b7f4e487b7100000000000000000000000000000000000000000000000000000000600052602260045260246000fd5b6000600282049050600182168061027357607f821691505b6020821081036102865761028561022c565b5b50919050565b60008190508160005260206000209050919050565b60006020601f8301049050919050565b600082821b905092915050565b6000600883026102ee7fffffffffffffffffffffffffffffffffffffffffffffffffffffffffffffffff826102b1565b6102f886836102b1565b95508019841693508086168417925050509392505050565b6000819050919050565b6000819050919050565b600061033f61033a61033584610310565b61031a565b610310565b9050919050565b6000819050919050565b61035983610324565b61036d61036582610346565b8484546102be565b825550505050565b600090565b610382610375565b61038d818484610350565b505050565b5b818110156103b1576103a660008261037a565b600181019050610393565b5050565b601f8211156103f6576103c78161028c565b6103d0846102a1565b810160208510156103df578190505b6103f36103eb856102a1565b830182610392565b50505b505050565b600082821c905092915050565b6000610419600019846008026103fb565b1980831691505092915050565b60006104328383610408565b9150826002028217905092915050565b61044b826101f2565b67ffffffffffffffff811115610464576104636101fd565b5b61046e825461025b565b6104798282856103b5565b600060209050601f8311600181146104ac576000841561049a578287015190505b6104a48582610426565b86555061050c565b601f1984166104ba8661028c565b60005b828110156104e2578489015182556001820191506020850194506020810190506104bd565b868310156104ff57848901516104fb601f891682610408565b8355505b6001600288020188555050505b505050505050565b600073ffffffffffffffffffffffffffffffffffffffff82169050919050565b600061053f82610514565b9050919050565b61054f81610534565b82525050565b600060208201905061056a6000830184610546565b92915050565b612df98061057f6000396000f3fe608060405234801561001057600080fd5b50600436106101425760003560e01c806370a08231116100b8578063b88d4fde1161007c578063b88d4fde14610379578063c87b56dd14610395578063dbfd4b98146103c5578063e985e9c5146103e3578063f2fde38b14610413578063feaeaf621461042f57610142565b806370a08231146102e7578063715018a6146103175780638da5cb5b1461032157806395d89b411461033f578063a22cb4651461035d57610142565b806323b872dd1161010a57806323b872dd1461021757806342842e0e14610233578063493f03091461024f57806355f804b31461027f5780636352211e1461029b57806366cf9b54146102cb57610142565b806301ffc9a71461014757806306fdde0314610177578063081812fc14610195578063095ea7b3146101c55780630ea91678146101e1575b600080fd5b610161600480360381019061015c9190611ccc565b61044b565b60405161016e9190611d14565b60405180910390f35b61017f61052d565b60405161018c9190611dbf565b60405180910390f35b6101af60048036038101906101aa9190611e17565b6105bf565b6040516101bc9190611e85565b60405180910390f35b6101df60048036038101906101da9190611ecc565b6105db565b005b6101fb60048036038101906101f69190611e17565b6105f1565b60405161020e9796959493929190611f37565b60405180910390f35b610231600480360381019061022c9190611fb4565b61076a565b005b61024d60048036038101906102489190611fb4565b61076f565b005b6102696004803603810190610264919061206c565b61078f565b60405161027691906120b9565b60405180910390f35b61029960048036038101906102949190612204565b6107ba565b005b6102b560048036038101906102b09190611e17565b6107d5565b6040516102c29190611e85565b60405180910390f35b6102e560048036038101906102e09190612279565b6107e7565b005b61030160048036038101906102fc9190612348565b610c5a565b60405161030e91906120b9565b60405180910390f35b61031f610d14565b005b610329610d28565b6040516103369190611e85565b60405180910390f35b610347610d52565b6040516103549190611dbf565b60405180910390f35b610377600480360381019061037291906123a1565b610de4565b005b610393600480360381019061038e9190612482565b610dfa565b005b6103af60048036038101906103aa9190611e17565b610e00565b6040516103bc9190611dbf565b60405180910390f35b6103cd610e41565b6040516103da91906120b9565b60405180910390f35b6103fd60048036038101906103f89190612505565b610e4b565b60405161040a9190611d14565b60405180910390f35b61042d60048036038101906104289190612348565b610edf565b005b61044960048036038101906104449190612545565b610f65565b005b60007f80ac58cd000000000000000000000000000000000000000000000000000000007bffffffffffffffffffffffffffffffffffffffffffffffffffffffff1916827bffffffffffffffffffffffffffffffffffffffffffffffffffffffff1916148061051657507f5b5e139f000000000000000000000000000000000000000000000000000000007bffffffffffffffffffffffffffffffffffffffffffffffffffffffff1916827bffffffffffffffffffffffffffffffffffffffffffffffffffffffff1916145b80610526575061052582610fce565b5b9050919050565b60606000805461053c906125d0565b80601f0160208091040260200160405190810160405280929190818152602001828054610568906125d0565b80156105b55780601f1061058a576101008083540402835291602001916105b5565b820191906000526020600020905b81548152906001019060200180831161059857829003601f168201915b5050505050905090565b60006105ca82611038565b506105d4826110c0565b9050919050565b6105ed82826105e86110fd565b611105565b5050565b6009602052806000526040600020600091509050806000018054610614906125d0565b80601f0160208091040260200160405190810160405280929190818152602001828054610640906125d0565b801561068d5780601f106106625761010080835404028352916020019161068d565b820191906000526020600020905b81548152906001019060200180831161067057829003601f168201915b5050505050908060010160009054906101000a900460030b908060010160049054906101000a900460030b908060010160089054906101000a900460030b908060020154908060030154908060040180546106e7906125d0565b80601f0160208091040260200160405190810160405280929190818152602001828054610713906125d0565b80156107605780601f1061073557610100808354040283529160200191610760565b820191906000526020600020905b81548152906001019060200180831161074357829003601f168201915b5050505050905087565b505050565b61078a83838360405180602001604052806000815250610dfa565b505050565b6000600b83836040516107a3929190612631565b908152602001604051809103902054905092915050565b6107c2611117565b80600c90816107d191906127f6565b5050565b60006107e082611038565b9050919050565b60006107f233610c5a565b14610832576040517f08c379a000000000000000000000000000000000000000000000000000000000815260040161082990612914565b60405180910390fd5b60008660030b1480610847575060018660030b145b610886576040517f08c379a000000000000000000000000000000000000000000000000000000000815260040161087d906129a6565b60405180910390fd5b60008311801561089557504283105b6108d4576040517f08c379a00000000000000000000000000000000000000000000000000000000081526004016108cb90612a12565b60405180910390fd5b7ffffffffffffffffffffffffffffffffffffffffffffffffffffffffffaa2b5808460030b1215801561090e575063055d4a808460030b13155b61094d576040517f08c379a000000000000000000000000000000000000000000000000000000000815260040161094490612a7e565b60405180910390fd5b7ffffffffffffffffffffffffffffffffffffffffffffffffffffffffff5456b008560030b121580156109875750630aba95008560030b13155b6109c6576040517f08c379a00000000000000000000000000000000000000000000000000000000081526004016109bd90612aea565b60405180910390fd5b60006007600081546109d790612b39565b91905081905590506000600b8a8a6040516109f3929190612631565b908152602001604051809103902060008154610a0e90612b39565b91905081905590506040518060e001604052808b8b8080601f016020809104026020016040519081016040528093929190818152602001838380828437600081840152601f19601f8201169050808301925050505050505081526020018960030b81526020018860030b81526020018760030b815260200186815260200182815260200185858080601f016020809104026020016040519081016040528093929190818152602001838380828437600081840152601f19601f82011690508083019250505050505050815250600960008481526020019081526020016000206000820151816000019081610b0291906127f6565b5060208201518160010160006101000a81548163ffffffff021916908360030b63ffffffff16021790555060408201518160010160046101000a81548163ffffffff021916908360030b63ffffffff16021790555060608201518160010160086101000a81548163ffffffff021916908360030b63ffffffff1602179055506080820151816002015560a0820151816003015560c0820151816004019081610baa91906127f6565b5090505081600a60003373ffffffffffffffffffffffffffffffffffffffff1673ffffffffffffffffffffffffffffffffffffffff16815260200190815260200160002081905550610bfc338361119e565b3373ffffffffffffffffffffffffffffffffffffffff167f97506e13e9d09fd3602f66628f25da8814d4e9685c495c7ded3e15654ca478e7838c8c604051610c4693929190612bae565b60405180910390a250505050505050505050565b60008073ffffffffffffffffffffffffffffffffffffffff168273ffffffffffffffffffffffffffffffffffffffff1603610ccd5760006040517f89c62b64000000000000000000000000000000000000000000000000000000008152600401610cc49190611e85565b60405180910390fd5b600360008373ffffffffffffffffffffffffffffffffffffffff1673ffffffffffffffffffffffffffffffffffffffff168152602001908152602001600020549050919050565b610d1c611117565b610d2660006111bc565b565b6000600660009054906101000a900473ffffffffffffffffffffffffffffffffffffffff16905090565b606060018054610d61906125d0565b80601f0160208091040260200160405190810160405280929190818152602001828054610d8d906125d0565b8015610dda5780601f10610daf57610100808354040283529160200191610dda565b820191906000526020600020905b815481529060010190602001808311610dbd57829003601f168201915b5050505050905090565b610df6610def6110fd565b8383611282565b5050565b50505050565b6060600c60096000848152602001908152602001600020600401604051602001610e2b929190612c63565b6040516020818303038152906040529050919050565b6000600754905090565b6000600560008473ffffffffffffffffffffffffffffffffffffffff1673ffffffffffffffffffffffffffffffffffffffff16815260200190815260200160002060008373ffffffffffffffffffffffffffffffffffffffff1673ffffffffffffffffffffffffffffffffffffffff16815260200190815260200160002060009054906101000a900460ff16905092915050565b610ee7611117565b600073ffffffffffffffffffffffffffffffffffffffff168173ffffffffffffffffffffffffffffffffffffffff1603610f595760006040517f1e4fbdf7000000000000000000000000000000000000000000000000000000008152600401610f509190611e85565b60405180910390fd5b610f62816111bc565b50565b610f6d611117565b80600960008481526020019081526020016000206004019081610f9091906127f6565b507f613807bd6768f626264e7eb664a65ca99a0d930f8fd8a5b868491a592eb57f728282604051610fc2929190612c87565b60405180910390a15050565b60007f01ffc9a7000000000000000000000000000000000000000000000000000000007bffffffffffffffffffffffffffffffffffffffffffffffffffffffff1916827bffffffffffffffffffffffffffffffffffffffffffffffffffffffff1916149050919050565b600080611044836113f1565b9050600073ffffffffffffffffffffffffffffffffffffffff168173ffffffffffffffffffffffffffffffffffffffff16036110b757826040517f7e2732890000000000000000000000000000000000000000000000000000000081526004016110ae91906120b9565b60405180910390fd5b80915050919050565b60006004600083815260200190815260200160002060009054906101000a900473ffffffffffffffffffffffffffffffffffffffff169050919050565b600033905090565b611112838383600161142e565b505050565b61111f6110fd565b73ffffffffffffffffffffffffffffffffffffffff1661113d610d28565b73ffffffffffffffffffffffffffffffffffffffff161461119c576111606110fd565b6040517f118cdaa70000000000000000000000000000000000000000000000000000000081526004016111939190611e85565b60405180910390fd5b565b6111b88282604051806020016040528060008152506115f3565b5050565b6000600660009054906101000a900473ffffffffffffffffffffffffffffffffffffffff16905081600660006101000a81548173ffffffffffffffffffffffffffffffffffffffff021916908373ffffffffffffffffffffffffffffffffffffffff1602179055508173ffffffffffffffffffffffffffffffffffffffff168173ffffffffffffffffffffffffffffffffffffffff167f8be0079c531659141344cd1fd0a4f28419497f9722a3daafe3b4186f6b6457e060405160405180910390a35050565b600073ffffffffffffffffffffffffffffffffffffffff168273ffffffffffffffffffffffffffffffffffffffff16036112f357816040517f5b08ba180000000000000000000000000000000000000000000000000000000081526004016112ea9190611e85565b60405180910390fd5b80600560008573ffffffffffffffffffffffffffffffffffffffff1673ffffffffffffffffffffffffffffffffffffffff16815260200190815260200160002060008473ffffffffffffffffffffffffffffffffffffffff1673ffffffffffffffffffffffffffffffffffffffff16815260200190815260200160002060006101000a81548160ff0219169083151502179055508173ffffffffffffffffffffffffffffffffffffffff168373ffffffffffffffffffffffffffffffffffffffff167f17307eab39ab6107e8899845ad3d59bd9653f200f220920489ca2b5937696c31836040516113e49190611d14565b60405180910390a3505050565b60006002600083815260200190815260200160002060009054906101000a900473ffffffffffffffffffffffffffffffffffffffff169050919050565b80806114675750600073ffffffffffffffffffffffffffffffffffffffff168273ffffffffffffffffffffffffffffffffffffffff1614155b1561159b57600061147784611038565b9050600073ffffffffffffffffffffffffffffffffffffffff168373ffffffffffffffffffffffffffffffffffffffff16141580156114e257508273ffffffffffffffffffffffffffffffffffffffff168173ffffffffffffffffffffffffffffffffffffffff1614155b80156114f557506114f38184610e4b565b155b1561153757826040517fa9fbf51f00000000000000000000000000000000000000000000000000000000815260040161152e9190611e85565b60405180910390fd5b811561159957838573ffffffffffffffffffffffffffffffffffffffff168273ffffffffffffffffffffffffffffffffffffffff167f8c5be1e5ebec7d5bd14f71427d1e84f3dd0314c0f7b2291e5b200ac8c7c3b92560405160405180910390a45b505b836004600085815260200190815260200160002060006101000a81548173ffffffffffffffffffffffffffffffffffffffff021916908373ffffffffffffffffffffffffffffffffffffffff16021790555050505050565b6115fd8383611617565b6116126116086110fd565b6000858585611710565b505050565b600073ffffffffffffffffffffffffffffffffffffffff168273ffffffffffffffffffffffffffffffffffffffff16036116895760006040517f64a0ae920000000000000000000000000000000000000000000000000000000081526004016116809190611e85565b60405180910390fd5b6000611697838360006118c1565b9050600073ffffffffffffffffffffffffffffffffffffffff168173ffffffffffffffffffffffffffffffffffffffff161461170b5760006040517f73c6ac6e0000000000000000000000000000000000000000000000000000000081526004016117029190611e85565b60405180910390fd5b505050565b60008373ffffffffffffffffffffffffffffffffffffffff163b11156118ba578273ffffffffffffffffffffffffffffffffffffffff1663150b7a02868685856040518563ffffffff1660e01b815260040161176f9493929190612d0c565b6020604051808303816000875af19250505080156117ab57506040513d601f19601f820116820180604052508101906117a89190612d6d565b60015b61182f573d80600081146117db576040519150601f19603f3d011682016040523d82523d6000602084013e6117e0565b606091505b50600081510361182757836040517f64a0ae9200000000000000000000000000000000000000000000000000000000815260040161181e9190611e85565b60405180910390fd5b805181602001fd5b63150b7a0260e01b7bffffffffffffffffffffffffffffffffffffffffffffffffffffffff1916817bffffffffffffffffffffffffffffffffffffffffffffffffffffffff1916146118b857836040517f64a0ae920000000000000000000000000000000000000000000000000000000081526004016118af9190611e85565b60405180910390fd5b505b5050505050565b6000806118cd846113f1565b9050600073ffffffffffffffffffffffffffffffffffffffff168373ffffffffffffffffffffffffffffffffffffffff161461190f5761190e818486611adb565b5b600073ffffffffffffffffffffffffffffffffffffffff168173ffffffffffffffffffffffffffffffffffffffff16146119a05761195160008560008061142e565b6001600360008373ffffffffffffffffffffffffffffffffffffffff1673ffffffffffffffffffffffffffffffffffffffff168152602001908152602001600020600082825403925050819055505b600073ffffffffffffffffffffffffffffffffffffffff168573ffffffffffffffffffffffffffffffffffffffff1614611a23576001600360008773ffffffffffffffffffffffffffffffffffffffff1673ffffffffffffffffffffffffffffffffffffffff168152602001908152602001600020600082825401925050819055505b846002600086815260200190815260200160002060006101000a81548173ffffffffffffffffffffffffffffffffffffffff021916908373ffffffffffffffffffffffffffffffffffffffff160217905550838573ffffffffffffffffffffffffffffffffffffffff168273ffffffffffffffffffffffffffffffffffffffff167fddf252ad1be2c89b69c2b068fc378daa952ba7f163c4a11628f55a4df523b3ef60405160405180910390a4809150509392505050565b611ae6838383611b9f565b611b9a57600073ffffffffffffffffffffffffffffffffffffffff168373ffffffffffffffffffffffffffffffffffffffff1603611b5b57806040517f7e273289000000000000000000000000000000000000000000000000000000008152600401611b5291906120b9565b60405180910390fd5b81816040517f177e802f000000000000000000000000000000000000000000000000000000008152600401611b91929190612d9a565b60405180910390fd5b505050565b60008073ffffffffffffffffffffffffffffffffffffffff168373ffffffffffffffffffffffffffffffffffffffff1614158015611c5757508273ffffffffffffffffffffffffffffffffffffffff168473ffffffffffffffffffffffffffffffffffffffff161480611c185750611c178484610e4b565b5b80611c5657508273ffffffffffffffffffffffffffffffffffffffff16611c3e836110c0565b73ffffffffffffffffffffffffffffffffffffffff16145b5b90509392505050565b6000604051905090565b600080fd5b600080fd5b60007fffffffff0000000000000000000000000000000000000000000000000000000082169050919050565b611ca981611c74565b8114611cb457600080fd5b50565b600081359050611cc681611ca0565b92915050565b600060208284031215611ce257611ce1611c6a565b5b6000611cf084828501611cb7565b91505092915050565b60008115159050919050565b611d0e81611cf9565b82525050565b6000602082019050611d296000830184611d05565b92915050565b600081519050919050565b600082825260208201905092915050565b60005b83811015611d69578082015181840152602081019050611d4e565b60008484015250505050565b6000601f19601f8301169050919050565b6000611d9182611d2f565b611d9b8185611d3a565b9350611dab818560208601611d4b565b611db481611d75565b840191505092915050565b60006020820190508181036000830152611dd98184611d86565b905092915050565b6000819050919050565b611df481611de1565b8114611dff57600080fd5b50565b600081359050611e1181611deb565b92915050565b600060208284031215611e2d57611e2c611c6a565b5b6000611e3b84828501611e02565b91505092915050565b600073ffffffffffffffffffffffffffffffffffffffff82169050919050565b6000611e6f82611e44565b9050919050565b611e7f81611e64565b82525050565b6000602082019050611e9a6000830184611e76565b92915050565b611ea981611e64565b8114611eb457600080fd5b50565b600081359050611ec681611ea0565b92915050565b60008060408385031215611ee357611ee2611c6a565b5b6000611ef185828601611eb7565b9250506020611f0285828601611e02565b9150509250929050565b60008160030b9050919050565b611f2281611f0c565b82525050565b611f3181611de1565b82525050565b600060e0820190508181036000830152611f51818a611d86565b9050611f606020830189611f19565b611f6d6040830188611f19565b611f7a6060830187611f19565b611f876080830186611f28565b611f9460a0830185611f28565b81810360c0830152611fa68184611d86565b905098975050505050505050565b600080600060608486031215611fcd57611fcc611c6a565b5b6000611fdb86828701611eb7565b9350506020611fec86828701611eb7565b9250506040611ffd86828701611e02565b9150509250925092565b600080fd5b600080fd5b600080fd5b60008083601f84011261202c5761202b612007565b5b8235905067ffffffffffffffff8111156120495761204861200c565b5b60208301915083600182028301111561206557612064612011565b5b9250929050565b6000806020838503121561208357612082611c6a565b5b600083013567ffffffffffffffff8111156120a1576120a0611c6f565b5b6120ad85828601612016565b92509250509250929050565b60006020820190506120ce6000830184611f28565b92915050565b600080fd5b7f4e487b7100000000000000000000000000000000000000000000000000000000600052604160045260246000fd5b61211182611d75565b810181811067ffffffffffffffff821117156121305761212f6120d9565b5b80604052505050565b6000612143611c60565b905061214f8282612108565b919050565b600067ffffffffffffffff82111561216f5761216e6120d9565b5b61217882611d75565b9050602081019050919050565b82818337600083830152505050565b60006121a76121a284612154565b612139565b9050828152602081018484840111156121c3576121c26120d4565b5b6121ce848285612185565b509392505050565b600082601f8301126121eb576121ea612007565b5b81356121fb848260208601612194565b91505092915050565b60006020828403121561221a57612219611c6a565b5b600082013567ffffffffffffffff81111561223857612237611c6f565b5b612244848285016121d6565b91505092915050565b61225681611f0c565b811461226157600080fd5b50565b6000813590506122738161224d565b92915050565b60008060008060008060008060c0898b03121561229957612298611c6a565b5b600089013567ffffffffffffffff8111156122b7576122b6611c6f565b5b6122c38b828c01612016565b985098505060206122d68b828c01612264565b96505060406122e78b828c01612264565b95505060606122f88b828c01612264565b94505060806123098b828c01611e02565b93505060a089013567ffffffffffffffff81111561232a57612329611c6f565b5b6123368b828c01612016565b92509250509295985092959890939650565b60006020828403121561235e5761235d611c6a565b5b600061236c84828501611eb7565b91505092915050565b61237e81611cf9565b811461238957600080fd5b50565b60008135905061239b81612375565b92915050565b600080604083850312156123b8576123b7611c6a565b5b60006123c685828601611eb7565b92505060206123d78582860161238c565b9150509250929050565b600067ffffffffffffffff8211156123fc576123fb6120d9565b5b61240582611d75565b9050602081019050919050565b6000612425612420846123e1565b612139565b905082815260208101848484011115612441576124406120d4565b5b61244c848285612185565b509392505050565b600082601f83011261246957612468612007565b5b8135612479848260208601612412565b91505092915050565b6000806000806080858703121561249c5761249b611c6a565b5b60006124aa87828801611eb7565b94505060206124bb87828801611eb7565b93505060406124cc87828801611e02565b925050606085013567ffffffffffffffff8111156124ed576124ec611c6f565b5b6124f987828801612454565b91505092959194509250565b6000806040838503121561251c5761251b611c6a565b5b600061252a85828601611eb7565b925050602061253b85828601611eb7565b9150509250929050565b6000806040838503121561255c5761255b611c6a565b5b600061256a85828601611e02565b925050602083013567ffffffffffffffff81111561258b5761258a611c6f565b5b612597858286016121d6565b9150509250929050565b7f4e487b7100000000000000000000000000000000000000000000000000000000600052602260045260246000fd5b600060028204905060018216806125e857607f821691505b6020821081036125fb576125fa6125a1565b5b50919050565b600081905092915050565b60006126188385612601565b9350612625838584612185565b82840190509392505050565b600061263e82848661260c565b91508190509392505050565b60008190508160005260206000209050919050565b60006020601f8301049050919050565b600082821b905092915050565b6000600883026126ac7fffffffffffffffffffffffffffffffffffffffffffffffffffffffffffffffff8261266f565b6126b6868361266f565b95508019841693508086168417925050509392505050565b6000819050919050565b60006126f36126ee6126e984611de1565b6126ce565b611de1565b9050919050565b6000819050919050565b61270d836126d8565b612721612719826126fa565b84845461267c565b825550505050565b600090565b612736612729565b612741818484612704565b505050565b5b818110156127655761275a60008261272e565b600181019050612747565b5050565b601f8211156127aa5761277b8161264a565b6127848461265f565b81016020851015612793578190505b6127a761279f8561265f565b830182612746565b50505b505050565b600082821c905092915050565b60006127cd600019846008026127af565b1980831691505092915050565b60006127e683836127bc565b9150826002028217905092915050565b6127ff82611d2f565b67ffffffffffffffff811115612818576128176120d9565b5b61282282546125d0565b61282d828285612769565b600060209050601f831160018114612860576000841561284e578287015190505b61285885826127da565b8655506128c0565b601f19841661286e8661264a565b60005b8281101561289657848901518255600182019150602085019450602081019050612871565b868310156128b357848901516128af601f8916826127bc565b8355505b6001600288020188555050505b505050505050565b7f596f7520616c72656164792068617665206120536f756c426164676500000000600082015250565b60006128fe601c83611d3a565b9150612909826128c8565b602082019050919050565b6000602082019050818103600083015261292d816128f1565b9050919050565b7f496e76616c69642067656e6465722028313d6d616c652c20303d66656d616c6560008201527f2900000000000000000000000000000000000000000000000000000000000000602082015250565b6000612990602183611d3a565b915061299b82612934565b604082019050919050565b600060208201905081810360008301526129bf81612983565b9050919050565b7f496e76616c696420626972746820646174650000000000000000000000000000600082015250565b60006129fc601283611d3a565b9150612a07826129c6565b602082019050919050565b60006020820190508181036000830152612a2b816129ef565b9050919050565b7f496e76616c6964206c6174697475646500000000000000000000000000000000600082015250565b6000612a68601083611d3a565b9150612a7382612a32565b602082019050919050565b60006020820190508181036000830152612a9781612a5b565b9050919050565b7f496e76616c6964206c6f6e676974756465000000000000000000000000000000600082015250565b6000612ad4601183611d3a565b9150612adf82612a9e565b602082019050919050565b60006020820190508181036000830152612b0381612ac7565b9050919050565b7f4e487b7100000000000000000000000000000000000000000000000000000000600052601160045260246000fd5b6000612b4482611de1565b91507fffffffffffffffffffffffffffffffffffffffffffffffffffffffffffffffff8203612b7657612b75612b0a565b5b600182019050919050565b6000612b8d8385611d3a565b9350612b9a838584612185565b612ba383611d75565b840190509392505050565b6000604082019050612bc36000830186611f28565b8181036020830152612bd6818486612b81565b9050949350505050565b60008154612bed816125d0565b612bf78186612601565b94506001821660008114612c125760018114612c2757612c5a565b60ff1983168652811515820286019350612c5a565b612c308561264a565b60005b83811015612c5257815481890152600182019150602081019050612c33565b838801955050505b50505092915050565b6000612c6f8285612be0565b9150612c7b8284612be0565b91508190509392505050565b6000604082019050612c9c6000830185611f28565b8181036020830152612cae8184611d86565b90509392505050565b600081519050919050565b600082825260208201905092915050565b6000612cde82612cb7565b612ce88185612cc2565b9350612cf8818560208601611d4b565b612d0181611d75565b840191505092915050565b6000608082019050612d216000830187611e76565b612d2e6020830186611e76565b612d3b6040830185611f28565b8181036060830152612d4d8184612cd3565b905095945050505050565b600081519050612d6781611ca0565b92915050565b600060208284031215612d8357612d82611c6a565b5b6000612d9184828501612d58565b91505092915050565b6000604082019050612daf6000830185611e76565b612dbc6020830184611f28565b939250505056fea2646970667358221220c8b7ffcb6a9506536ca6fb448a58e9c0f6216ae1bd42643fa4d43f678b3f1a2a64736f6c634300081c0033",
  "linkReferences": {},
  "deployedLinkReferences": {}
}